{
  "_format": "hh-sol-artifact-1",
  "contractName": "DAOGenie",
  "sourceName": "contracts/DAOGenie.sol",
  "abi": [
    {
      "anonymous": false,
      "inputs": [
        {
          "indexed": false,
          "internalType": "uint256",
          "name": "daoId",
          "type": "uint256"
        },
        {
          "indexed": false,
          "internalType": "address",
          "name": "creator",
          "type": "address"
        },
        {
          "indexed": false,
          "internalType": "string",
          "name": "name",
          "type": "string"
        }
      ],
      "name": "DAOCreated",
      "type": "event"
    },
    {
      "anonymous": false,
      "inputs": [
        {
          "indexed": false,
          "internalType": "uint256",
          "name": "daoId",
          "type": "uint256"
        },
        {
          "indexed": false,
          "internalType": "address",
          "name": "from",
          "type": "address"
        },
        {
          "indexed": false,
          "internalType": "address",
          "name": "to",
          "type": "address"
        },
        {
          "indexed": false,
          "internalType": "uint256",
          "name": "amount",
          "type": "uint256"
        }
      ],
      "name": "DAOVotesReallocated",
      "type": "event"
    },
    {
      "anonymous": false,
      "inputs": [
        {
          "indexed": false,
          "internalType": "uint256",
          "name": "daoId",
          "type": "uint256"
        },
        {
          "indexed": false,
          "internalType": "uint256",
          "name": "proposalIndex",
          "type": "uint256"
        },
        {
          "indexed": false,
          "internalType": "address",
          "name": "creator",
          "type": "address"
        },
        {
          "indexed": false,
          "internalType": "string",
          "name": "title",
          "type": "string"
        }
      ],
      "name": "ProposalCreated",
      "type": "event"
    },
    {
      "anonymous": false,
      "inputs": [
        {
          "indexed": false,
          "internalType": "uint256",
          "name": "daoId",
          "type": "uint256"
        },
        {
          "indexed": false,
          "internalType": "uint256",
          "name": "proposalIndex",
          "type": "uint256"
        }
      ],
      "name": "ProposalPassed",
      "type": "event"
    },
    {
      "anonymous": false,
      "inputs": [
        {
          "indexed": false,
          "internalType": "uint256",
          "name": "daoId",
          "type": "uint256"
        },
        {
          "indexed": false,
          "internalType": "uint256",
          "name": "proposalIndex",
          "type": "uint256"
        },
        {
          "indexed": false,
          "internalType": "address",
          "name": "voter",
          "type": "address"
        },
        {
          "indexed": false,
          "internalType": "uint256",
          "name": "votes",
          "type": "uint256"
        }
      ],
      "name": "ProposalVotedOn",
      "type": "event"
    },
    {
      "inputs": [
        {
          "internalType": "string",
          "name": "name",
          "type": "string"
        },
        {
          "internalType": "address",
          "name": "treasuryAddress",
          "type": "address"
        }
      ],
      "name": "createDAO",
      "outputs": [
        {
          "internalType": "uint256",
          "name": "",
          "type": "uint256"
        }
      ],
      "stateMutability": "nonpayable",
      "type": "function"
    },
    {
      "inputs": [
        {
          "internalType": "uint256",
          "name": "daoId",
          "type": "uint256"
        },
        {
          "internalType": "string",
          "name": "title",
          "type": "string"
        },
        {
          "internalType": "string",
          "name": "description",
          "type": "string"
        }
      ],
      "name": "createProposal",
      "outputs": [],
      "stateMutability": "nonpayable",
      "type": "function"
    },
    {
      "inputs": [
        {
          "internalType": "uint256",
          "name": "",
          "type": "uint256"
        },
        {
          "internalType": "uint256",
          "name": "",
          "type": "uint256"
        }
      ],
      "name": "daoMembers",
      "outputs": [
        {
          "internalType": "address",
          "name": "",
          "type": "address"
        }
      ],
      "stateMutability": "view",
      "type": "function"
    },
    {
      "inputs": [
        {
          "internalType": "uint256",
          "name": "",
          "type": "uint256"
        },
        {
          "internalType": "uint256",
          "name": "",
          "type": "uint256"
        }
      ],
      "name": "daoProposals",
      "outputs": [
        {
          "internalType": "uint256",
          "name": "id",
          "type": "uint256"
        },
        {
          "internalType": "address",
          "name": "creator",
          "type": "address"
        },
        {
          "internalType": "uint256",
          "name": "createdAt",
          "type": "uint256"
        },
        {
          "internalType": "uint256",
          "name": "votingEndsAt",
          "type": "uint256"
        },
        {
          "internalType": "string",
          "name": "title",
          "type": "string"
        },
        {
          "internalType": "string",
          "name": "description",
          "type": "string"
        },
        {
          "internalType": "bool",
          "name": "passed",
          "type": "bool"
        },
        {
          "internalType": "uint256",
          "name": "votesNeededToPass",
          "type": "uint256"
        },
        {
          "internalType": "uint256",
          "name": "yesVotes",
          "type": "uint256"
        }
      ],
      "stateMutability": "view",
      "type": "function"
    },
    {
      "inputs": [
        {
          "internalType": "uint256",
          "name": "",
          "type": "uint256"
        },
        {
          "internalType": "address",
          "name": "",
          "type": "address"
        }
      ],
      "name": "daoVotes",
      "outputs": [
        {
          "internalType": "uint256",
          "name": "",
          "type": "uint256"
        }
      ],
      "stateMutability": "view",
      "type": "function"
    },
    {
      "inputs": [
        {
          "internalType": "uint256",
          "name": "",
          "type": "uint256"
        }
      ],
      "name": "daos",
      "outputs": [
        {
          "internalType": "uint256",
          "name": "id",
          "type": "uint256"
        },
        {
          "internalType": "uint256",
          "name": "createdAt",
          "type": "uint256"
        },
        {
          "internalType": "string",
          "name": "name",
          "type": "string"
        },
        {
          "internalType": "address",
          "name": "creator",
          "type": "address"
        },
        {
          "internalType": "uint256",
          "name": "totalVotes",
          "type": "uint256"
        },
        {
          "internalType": "uint256",
          "name": "numberOfMembers",
          "type": "uint256"
        },
        {
          "internalType": "uint256",
          "name": "numberOfProposals",
          "type": "uint256"
        },
        {
          "internalType": "address",
          "name": "treasuryAddress",
          "type": "address"
        }
      ],
      "stateMutability": "view",
      "type": "function"
    },
    {
      "inputs": [
        {
          "internalType": "uint256",
          "name": "daoId",
          "type": "uint256"
        }
      ],
      "name": "getDAO",
      "outputs": [
        {
          "components": [
            {
              "internalType": "uint256",
              "name": "id",
              "type": "uint256"
            },
            {
              "internalType": "uint256",
              "name": "createdAt",
              "type": "uint256"
            },
            {
              "internalType": "string",
              "name": "name",
              "type": "string"
            },
            {
              "internalType": "address",
              "name": "creator",
              "type": "address"
            },
            {
              "internalType": "uint256",
              "name": "totalVotes",
              "type": "uint256"
            },
            {
              "internalType": "uint256",
              "name": "numberOfMembers",
              "type": "uint256"
            },
            {
              "internalType": "uint256",
              "name": "numberOfProposals",
              "type": "uint256"
            },
            {
              "internalType": "address",
              "name": "treasuryAddress",
              "type": "address"
            }
          ],
          "internalType": "struct DAOGenie.DAO",
          "name": "",
          "type": "tuple"
        }
      ],
      "stateMutability": "view",
      "type": "function"
    },
    {
      "inputs": [
        {
          "internalType": "uint256",
          "name": "daoId",
          "type": "uint256"
        }
      ],
      "name": "getDaoMembers",
      "outputs": [
        {
          "internalType": "address[]",
          "name": "",
          "type": "address[]"
        }
      ],
      "stateMutability": "view",
      "type": "function"
    },
    {
      "inputs": [
        {
          "internalType": "uint256",
          "name": "daoId",
          "type": "uint256"
        }
      ],
      "name": "getDaoMembersLength",
      "outputs": [
        {
          "internalType": "uint256",
          "name": "",
          "type": "uint256"
        }
      ],
      "stateMutability": "view",
      "type": "function"
    },
    {
      "inputs": [
        {
          "internalType": "uint256",
          "name": "daoId",
          "type": "uint256"
        }
      ],
      "name": "getDaoProposalsLength",
      "outputs": [
        {
          "internalType": "uint256",
          "name": "",
          "type": "uint256"
        }
      ],
      "stateMutability": "view",
      "type": "function"
    },
    {
      "inputs": [
        {
          "internalType": "uint256",
          "name": "daoId",
          "type": "uint256"
        },
        {
          "internalType": "address",
          "name": "member",
          "type": "address"
        }
      ],
      "name": "getDaoVotes",
      "outputs": [
        {
          "internalType": "uint256",
          "name": "",
          "type": "uint256"
        }
      ],
      "stateMutability": "view",
      "type": "function"
    },
    {
      "inputs": [
        {
          "internalType": "address",
          "name": "member",
          "type": "address"
        }
      ],
      "name": "getDaosByMember",
      "outputs": [
        {
          "components": [
            {
              "internalType": "uint256",
              "name": "id",
              "type": "uint256"
            },
            {
              "internalType": "uint256",
              "name": "createdAt",
              "type": "uint256"
            },
            {
              "internalType": "string",
              "name": "name",
              "type": "string"
            },
            {
              "internalType": "address",
              "name": "creator",
              "type": "address"
            },
            {
              "internalType": "uint256",
              "name": "totalVotes",
              "type": "uint256"
            },
            {
              "internalType": "uint256",
              "name": "numberOfMembers",
              "type": "uint256"
            },
            {
              "internalType": "uint256",
              "name": "numberOfProposals",
              "type": "uint256"
            },
            {
              "internalType": "address",
              "name": "treasuryAddress",
              "type": "address"
            }
          ],
          "internalType": "struct DAOGenie.DAO[]",
          "name": "",
          "type": "tuple[]"
        }
      ],
      "stateMutability": "view",
      "type": "function"
    },
    {
      "inputs": [],
      "name": "getDaosLength",
      "outputs": [
        {
          "internalType": "uint256",
          "name": "",
          "type": "uint256"
        }
      ],
      "stateMutability": "view",
      "type": "function"
    },
    {
      "inputs": [
        {
          "internalType": "uint256",
          "name": "daoId",
          "type": "uint256"
        },
        {
          "internalType": "uint256",
          "name": "proposalIndex",
          "type": "uint256"
        },
        {
          "internalType": "address",
          "name": "voter",
          "type": "address"
        }
      ],
      "name": "getHasVoted",
      "outputs": [
        {
          "internalType": "bool",
          "name": "",
          "type": "bool"
        }
      ],
      "stateMutability": "view",
      "type": "function"
    },
    {
      "inputs": [
        {
          "internalType": "uint256",
          "name": "daoId",
          "type": "uint256"
        }
      ],
      "name": "getProposals",
      "outputs": [
        {
          "components": [
            {
              "internalType": "uint256",
              "name": "id",
              "type": "uint256"
            },
            {
              "internalType": "address",
              "name": "creator",
              "type": "address"
            },
            {
              "internalType": "uint256",
              "name": "createdAt",
              "type": "uint256"
            },
            {
              "internalType": "uint256",
              "name": "votingEndsAt",
              "type": "uint256"
            },
            {
              "internalType": "string",
              "name": "title",
              "type": "string"
            },
            {
              "internalType": "string",
              "name": "description",
              "type": "string"
            },
            {
              "internalType": "bool",
              "name": "passed",
              "type": "bool"
            },
            {
              "internalType": "uint256",
              "name": "votesNeededToPass",
              "type": "uint256"
            },
            {
              "internalType": "uint256",
              "name": "yesVotes",
              "type": "uint256"
            }
          ],
          "internalType": "struct DAOGenie.Proposal[]",
          "name": "",
          "type": "tuple[]"
        }
      ],
      "stateMutability": "view",
      "type": "function"
    },
    {
      "inputs": [
        {
          "internalType": "uint256",
          "name": "",
          "type": "uint256"
        },
        {
          "internalType": "uint256",
          "name": "",
          "type": "uint256"
        },
        {
          "internalType": "address",
          "name": "",
          "type": "address"
        }
      ],
      "name": "hasVoted",
      "outputs": [
        {
          "internalType": "bool",
          "name": "",
          "type": "bool"
        }
      ],
      "stateMutability": "view",
      "type": "function"
    },
    {
      "inputs": [
        {
          "internalType": "uint256",
          "name": "daoId",
          "type": "uint256"
        },
        {
          "internalType": "uint256",
          "name": "proposalIndex",
          "type": "uint256"
        }
      ],
      "name": "isProposalFailed",
      "outputs": [
        {
          "internalType": "bool",
          "name": "",
          "type": "bool"
        }
      ],
      "stateMutability": "view",
      "type": "function"
    },
    {
      "inputs": [
        {
          "internalType": "uint256",
          "name": "daoId",
          "type": "uint256"
        },
        {
          "internalType": "address",
          "name": "to",
          "type": "address"
        },
        {
          "internalType": "uint256",
          "name": "amount",
          "type": "uint256"
        }
      ],
      "name": "reallocateVotes",
      "outputs": [],
      "stateMutability": "nonpayable",
      "type": "function"
    },
    {
      "inputs": [
        {
          "internalType": "uint256",
          "name": "daoId",
          "type": "uint256"
        },
        {
          "internalType": "uint256",
          "name": "proposalIndex",
          "type": "uint256"
        }
      ],
      "name": "voteOnProposal",
      "outputs": [],
      "stateMutability": "nonpayable",
      "type": "function"
    }
  ],
  "bytecode": "0x6080604052348015600f57600080fd5b506133118061001f6000396000f3fe608060405234801561001057600080fd5b50600436106101215760003560e01c806378640668116100ad578063c4a33e6f11610071578063c4a33e6f1461038c578063ccbbd260146103bc578063e4ed8aba146103f3578063eed1bf6c1461040f578063fe3b23c31461044757610121565b806378640668146102c25780637a5e3a26146102f2578063848ab4131461030e57806397f220f71461033e578063be7335d61461035c57610121565b80633ce0bf4d116100f45780633ce0bf4d146101e6578063556f6cc0146102165780635a29426c146102325780635d3debf71461026257806367d5d2521461029257610121565b806305a29d57146101265780630d39a1d314610156578063182d6595146101865780632c72fdfc146101b6575b600080fd5b610140600480360381019061013b9190612002565b610477565b60405161014d9190612051565b60405180910390f35b610170600480360381019061016b919061206c565b6104d2565b60405161017d91906120da565b60405180910390f35b6101a0600480360381019061019b91906120f5565b61050e565b6040516101ad9190612051565b60405180910390f35b6101d060048036038101906101cb91906120f5565b61052e565b6040516101dd919061236d565b60405180910390f35b61020060048036038101906101fb91906124c4565b610768565b60405161020d9190612051565b60405180910390f35b610230600480360381019061022b9190612520565b6109f2565b005b61024c600480360381019061024791906120f5565b610db3565b6040516102599190612610565b60405180910390f35b61027c6004803603810190610277919061206c565b610f60565b60405161028991906120da565b60405180910390f35b6102ac60048036038101906102a79190612520565b610fda565b6040516102b991906120da565b60405180910390f35b6102dc60048036038101906102d79190612002565b611204565b6040516102e99190612051565b60405180910390f35b61030c60048036038101906103079190612632565b611229565b005b61032860048036038101906103239190612520565b61152c565b60405161033591906126cc565b60405180910390f35b61034661157a565b6040516103539190612051565b60405180910390f35b610376600480360381019061037191906120f5565b611586565b6040516103839190612796565b60405180910390f35b6103a660048036038101906103a191906120f5565b611627565b6040516103b39190612051565b60405180910390f35b6103d660048036038101906103d191906120f5565b611647565b6040516103ea989796959493929190612802565b60405180910390f35b61040d60048036038101906104089190612887565b611767565b005b61042960048036038101906104249190612520565b611a12565b60405161043e999897969594939291906128da565b60405180910390f35b610461600480360381019061045c9190612975565b611bba565b60405161046e9190612b14565b60405180910390f35b60006002600084815260200190815260200160002060008373ffffffffffffffffffffffffffffffffffffffff1673ffffffffffffffffffffffffffffffffffffffff16815260200190815260200160002054905092915050565b6004602052826000526040600020602052816000526040600020602052806000526040600020600092509250509054906101000a900460ff1681565b600060036000838152602001908152602001600020805490509050919050565b606060036000838152602001908152602001600020805480602002602001604051908101604052809291908181526020016000905b8282101561075d578382906000526020600020906009020160405180610120016040529081600082015481526020016001820160009054906101000a900473ffffffffffffffffffffffffffffffffffffffff1673ffffffffffffffffffffffffffffffffffffffff1673ffffffffffffffffffffffffffffffffffffffff168152602001600282015481526020016003820154815260200160048201805461060b90612b65565b80601f016020809104026020016040519081016040528092919081815260200182805461063790612b65565b80156106845780601f1061065957610100808354040283529160200191610684565b820191906000526020600020905b81548152906001019060200180831161066757829003601f168201915b5050505050815260200160058201805461069d90612b65565b80601f01602080910402602001604051908101604052809291908181526020018280546106c990612b65565b80156107165780601f106106eb57610100808354040283529160200191610716565b820191906000526020600020905b8154815290600101906020018083116106f957829003601f168201915b505050505081526020016006820160009054906101000a900460ff161515151581526020016007820154815260200160088201548152505081526020019060010190610563565b505050509050919050565b600080600080549050905060006040518061010001604052808381526020014281526020018681526020013373ffffffffffffffffffffffffffffffffffffffff168152602001620f4240815260200160018152602001600081526020018573ffffffffffffffffffffffffffffffffffffffff168152509080600181540180825580915050600190039060005260206000209060080201600090919091909150600082015181600001556020820151816001015560408201518160020190816108329190612d42565b5060608201518160030160006101000a81548173ffffffffffffffffffffffffffffffffffffffff021916908373ffffffffffffffffffffffffffffffffffffffff1602179055506080820151816004015560a0820151816005015560c0820151816006015560e08201518160070160006101000a81548173ffffffffffffffffffffffffffffffffffffffff021916908373ffffffffffffffffffffffffffffffffffffffff160217905550505060016000828152602001908152602001600020339080600181540180825580915050600190039060005260206000200160009091909190916101000a81548173ffffffffffffffffffffffffffffffffffffffff021916908373ffffffffffffffffffffffffffffffffffffffff160217905550620f42406002600083815260200190815260200160002060003373ffffffffffffffffffffffffffffffffffffffff1673ffffffffffffffffffffffffffffffffffffffff168152602001908152602001600020819055507f6b14f83bb5562a28805993fa10f21032c10f5f0b2ea2e4e7c3b6f170551a08048133866040516109e093929190612e14565b60405180910390a18091505092915050565b60006002600084815260200190815260200160002060003373ffffffffffffffffffffffffffffffffffffffff1673ffffffffffffffffffffffffffffffffffffffff1681526020019081526020016000205411610a85576040517f08c379a0000000000000000000000000000000000000000000000000000000008152600401610a7c90612e9e565b60405180910390fd5b60046000838152602001908152602001600020600082815260200190815260200160002060003373ffffffffffffffffffffffffffffffffffffffff1673ffffffffffffffffffffffffffffffffffffffff16815260200190815260200160002060009054906101000a900460ff1615610b34576040517f08c379a0000000000000000000000000000000000000000000000000000000008152600401610b2b90612f0a565b60405180910390fd5b6000600360008481526020019081526020016000208281548110610b5b57610b5a612f2a565b5b906000526020600020906009020190508060060160009054906101000a900460ff1615610bbd576040517f08c379a0000000000000000000000000000000000000000000000000000000008152600401610bb490612fa5565b60405180910390fd5b80600301544210610c03576040517f08c379a0000000000000000000000000000000000000000000000000000000008152600401610bfa90613011565b60405180910390fd5b60006002600085815260200190815260200160002060003373ffffffffffffffffffffffffffffffffffffffff1673ffffffffffffffffffffffffffffffffffffffff16815260200190815260200160002054905080826008016000828254610c6c9190613060565b92505081905550600160046000868152602001908152602001600020600085815260200190815260200160002060003373ffffffffffffffffffffffffffffffffffffffff1673ffffffffffffffffffffffffffffffffffffffff16815260200190815260200160002060006101000a81548160ff0219169083151502179055507f1fb428dbdff483a0d26139c9ff990fb851b94984d4b95f0fb62f0bfc032454d384843384604051610d229493929190613094565b60405180910390a18160070154826008015410158015610d5157508160060160009054906101000a900460ff16155b15610dad5760018260060160006101000a81548160ff0219169083151502179055507f646e6c03c7af143a9a24603e3ed75695bb683446c464bfd940be5832660f7bd08484604051610da49291906130d9565b60405180910390a15b50505050565b610dbb611ee9565b60008281548110610dcf57610dce612f2a565b5b9060005260206000209060080201604051806101000160405290816000820154815260200160018201548152602001600282018054610e0d90612b65565b80601f0160208091040260200160405190810160405280929190818152602001828054610e3990612b65565b8015610e865780601f10610e5b57610100808354040283529160200191610e86565b820191906000526020600020905b815481529060010190602001808311610e6957829003601f168201915b505050505081526020016003820160009054906101000a900473ffffffffffffffffffffffffffffffffffffffff1673ffffffffffffffffffffffffffffffffffffffff1673ffffffffffffffffffffffffffffffffffffffff1681526020016004820154815260200160058201548152602001600682015481526020016007820160009054906101000a900473ffffffffffffffffffffffffffffffffffffffff1673ffffffffffffffffffffffffffffffffffffffff1673ffffffffffffffffffffffffffffffffffffffff16815250509050919050565b600060046000858152602001908152602001600020600084815260200190815260200160002060008373ffffffffffffffffffffffffffffffffffffffff1673ffffffffffffffffffffffffffffffffffffffff16815260200190815260200160002060009054906101000a900460ff1690509392505050565b60008060036000858152602001908152602001600020838154811061100257611001612f2a565b5b906000526020600020906009020160405180610120016040529081600082015481526020016001820160009054906101000a900473ffffffffffffffffffffffffffffffffffffffff1673ffffffffffffffffffffffffffffffffffffffff1673ffffffffffffffffffffffffffffffffffffffff16815260200160028201548152602001600382015481526020016004820180546110a090612b65565b80601f01602080910402602001604051908101604052809291908181526020018280546110cc90612b65565b80156111195780601f106110ee57610100808354040283529160200191611119565b820191906000526020600020905b8154815290600101906020018083116110fc57829003601f168201915b5050505050815260200160058201805461113290612b65565b80601f016020809104026020016040519081016040528092919081815260200182805461115e90612b65565b80156111ab5780601f10611180576101008083540402835291602001916111ab565b820191906000526020600020905b81548152906001019060200180831161118e57829003601f168201915b505050505081526020016006820160009054906101000a900460ff16151515158152602001600782015481526020016008820154815250509050806060015142101580156111fb57508060c00151155b91505092915050565b6002602052816000526040600020602052806000526040600020600091509150505481565b60006002600085815260200190815260200160002060003373ffffffffffffffffffffffffffffffffffffffff1673ffffffffffffffffffffffffffffffffffffffff16815260200190815260200160002054116112bc576040517f08c379a00000000000000000000000000000000000000000000000000000000081526004016112b390612e9e565b60405180910390fd5b600060016002600086815481106112d6576112d5612f2a565b5b9060005260206000209060080201600401546112f29190613131565b6112fc9190613060565b90506000604051806101200160405280600360008881526020019081526020016000208054905081526020013373ffffffffffffffffffffffffffffffffffffffff16815260200142815260200162093a80426113599190613060565b815260200185815260200184815260200160001515815260200183815260200160008152509050600360008681526020019081526020016000208190806001815401808255809150506001900390600052602060002090600902016000909190919091506000820151816000015560208201518160010160006101000a81548173ffffffffffffffffffffffffffffffffffffffff021916908373ffffffffffffffffffffffffffffffffffffffff160217905550604082015181600201556060820151816003015560808201518160040190816114379190612d42565b5060a082015181600501908161144d9190612d42565b5060c08201518160060160006101000a81548160ff02191690831515021790555060e08201518160070155610100820151816008015550506000600160036000888152602001908152602001600020805490506114aa9190613162565b9050600086815481106114c0576114bf612f2a565b5b906000526020600020906008020160060160008154809291906114e290613196565b91905055507f6f3322e9e9bcd9739d7dcbb73278ee28b363d39f7900bd404831ee8dfb41608e8682338860405161151c94939291906131de565b60405180910390a1505050505050565b6001602052816000526040600020818154811061154857600080fd5b906000526020600020016000915091509054906101000a900473ffffffffffffffffffffffffffffffffffffffff1681565b60008080549050905090565b60606001600083815260200190815260200160002080548060200260200160405190810160405280929190818152602001828054801561161b57602002820191906000526020600020905b8160009054906101000a900473ffffffffffffffffffffffffffffffffffffffff1673ffffffffffffffffffffffffffffffffffffffff16815260200190600101908083116115d1575b50505050509050919050565b600060016000838152602001908152602001600020805490509050919050565b6000818154811061165757600080fd5b906000526020600020906008020160009150905080600001549080600101549080600201805461168690612b65565b80601f01602080910402602001604051908101604052809291908181526020018280546116b290612b65565b80156116ff5780601f106116d4576101008083540402835291602001916116ff565b820191906000526020600020905b8154815290600101906020018083116116e257829003601f168201915b5050505050908060030160009054906101000a900473ffffffffffffffffffffffffffffffffffffffff16908060040154908060050154908060060154908060070160009054906101000a900473ffffffffffffffffffffffffffffffffffffffff16905088565b806002600085815260200190815260200160002060003373ffffffffffffffffffffffffffffffffffffffff1673ffffffffffffffffffffffffffffffffffffffff1681526020019081526020016000205410156117fa576040517f08c379a00000000000000000000000000000000000000000000000000000000081526004016117f190613276565b60405180910390fd5b806002600085815260200190815260200160002060003373ffffffffffffffffffffffffffffffffffffffff1673ffffffffffffffffffffffffffffffffffffffff168152602001908152602001600020600082825461185a9190613162565b9250508190555060006002600085815260200190815260200160002060008473ffffffffffffffffffffffffffffffffffffffff1673ffffffffffffffffffffffffffffffffffffffff16815260200190815260200160002054036119695760016000848152602001908152602001600020829080600181540180825580915050600190039060005260206000200160009091909190916101000a81548173ffffffffffffffffffffffffffffffffffffffff021916908373ffffffffffffffffffffffffffffffffffffffff1602179055506000838154811061194157611940612f2a565b5b9060005260206000209060080201600501600081548092919061196390613196565b91905055505b806002600085815260200190815260200160002060008473ffffffffffffffffffffffffffffffffffffffff1673ffffffffffffffffffffffffffffffffffffffff16815260200190815260200160002060008282546119c99190613060565b925050819055507f3ae4ef7c5f677ec42aa5a2d42c670dbc0b9f65345e4af5365884b378b995707b83338484604051611a059493929190613296565b60405180910390a1505050565b60036020528160005260406000208181548110611a2e57600080fd5b9060005260206000209060090201600091509150508060000154908060010160009054906101000a900473ffffffffffffffffffffffffffffffffffffffff1690806002015490806003015490806004018054611a8a90612b65565b80601f0160208091040260200160405190810160405280929190818152602001828054611ab690612b65565b8015611b035780601f10611ad857610100808354040283529160200191611b03565b820191906000526020600020905b815481529060010190602001808311611ae657829003601f168201915b505050505090806005018054611b1890612b65565b80601f0160208091040260200160405190810160405280929190818152602001828054611b4490612b65565b8015611b915780601f10611b6657610100808354040283529160200191611b91565b820191906000526020600020905b815481529060010190602001808311611b7457829003601f168201915b5050505050908060060160009054906101000a900460ff16908060070154908060080154905089565b60606000805b600080549050811015611c425760006002600083815260200190815260200160002060008673ffffffffffffffffffffffffffffffffffffffff1673ffffffffffffffffffffffffffffffffffffffff168152602001908152602001600020541115611c35578180611c3190613196565b9250505b8080600101915050611bc0565b5060008167ffffffffffffffff811115611c5f57611c5e612399565b5b604051908082528060200260200182016040528015611c9857816020015b611c85611ee9565b815260200190600190039081611c7d5790505b5090506000805b600080549050811015611edd5760006002600083815260200190815260200160002060008873ffffffffffffffffffffffffffffffffffffffff1673ffffffffffffffffffffffffffffffffffffffff168152602001908152602001600020541115611ed05760008181548110611d1957611d18612f2a565b5b9060005260206000209060080201604051806101000160405290816000820154815260200160018201548152602001600282018054611d5790612b65565b80601f0160208091040260200160405190810160405280929190818152602001828054611d8390612b65565b8015611dd05780601f10611da557610100808354040283529160200191611dd0565b820191906000526020600020905b815481529060010190602001808311611db357829003601f168201915b505050505081526020016003820160009054906101000a900473ffffffffffffffffffffffffffffffffffffffff1673ffffffffffffffffffffffffffffffffffffffff1673ffffffffffffffffffffffffffffffffffffffff1681526020016004820154815260200160058201548152602001600682015481526020016007820160009054906101000a900473ffffffffffffffffffffffffffffffffffffffff1673ffffffffffffffffffffffffffffffffffffffff1673ffffffffffffffffffffffffffffffffffffffff1681525050838381518110611eb657611eb5612f2a565b5b60200260200101819052508180611ecc90613196565b9250505b8080600101915050611c9f565b50819350505050919050565b604051806101000160405280600081526020016000815260200160608152602001600073ffffffffffffffffffffffffffffffffffffffff168152602001600081526020016000815260200160008152602001600073ffffffffffffffffffffffffffffffffffffffff1681525090565b6000604051905090565b600080fd5b600080fd5b6000819050919050565b611f8181611f6e565b8114611f8c57600080fd5b50565b600081359050611f9e81611f78565b92915050565b600073ffffffffffffffffffffffffffffffffffffffff82169050919050565b6000611fcf82611fa4565b9050919050565b611fdf81611fc4565b8114611fea57600080fd5b50565b600081359050611ffc81611fd6565b92915050565b6000806040838503121561201957612018611f64565b5b600061202785828601611f8f565b925050602061203885828601611fed565b9150509250929050565b61204b81611f6e565b82525050565b60006020820190506120666000830184612042565b92915050565b60008060006060848603121561208557612084611f64565b5b600061209386828701611f8f565b93505060206120a486828701611f8f565b92505060406120b586828701611fed565b9150509250925092565b60008115159050919050565b6120d4816120bf565b82525050565b60006020820190506120ef60008301846120cb565b92915050565b60006020828403121561210b5761210a611f64565b5b600061211984828501611f8f565b91505092915050565b600081519050919050565b600082825260208201905092915050565b6000819050602082019050919050565b61215781611f6e565b82525050565b61216681611fc4565b82525050565b600081519050919050565b600082825260208201905092915050565b60005b838110156121a657808201518184015260208101905061218b565b60008484015250505050565b6000601f19601f8301169050919050565b60006121ce8261216c565b6121d88185612177565b93506121e8818560208601612188565b6121f1816121b2565b840191505092915050565b612205816120bf565b82525050565b600061012083016000830151612224600086018261214e565b506020830151612237602086018261215d565b50604083015161224a604086018261214e565b50606083015161225d606086018261214e565b506080830151848203608086015261227582826121c3565b91505060a083015184820360a086015261228f82826121c3565b91505060c08301516122a460c08601826121fc565b5060e08301516122b760e086018261214e565b506101008301516122cc61010086018261214e565b508091505092915050565b60006122e3838361220b565b905092915050565b6000602082019050919050565b600061230382612122565b61230d818561212d565b93508360208202850161231f8561213e565b8060005b8581101561235b578484038952815161233c85826122d7565b9450612347836122eb565b925060208a01995050600181019050612323565b50829750879550505050505092915050565b6000602082019050818103600083015261238781846122f8565b905092915050565b600080fd5b600080fd5b7f4e487b7100000000000000000000000000000000000000000000000000000000600052604160045260246000fd5b6123d1826121b2565b810181811067ffffffffffffffff821117156123f0576123ef612399565b5b80604052505050565b6000612403611f5a565b905061240f82826123c8565b919050565b600067ffffffffffffffff82111561242f5761242e612399565b5b612438826121b2565b9050602081019050919050565b82818337600083830152505050565b600061246761246284612414565b6123f9565b90508281526020810184848401111561248357612482612394565b5b61248e848285612445565b509392505050565b600082601f8301126124ab576124aa61238f565b5b81356124bb848260208601612454565b91505092915050565b600080604083850312156124db576124da611f64565b5b600083013567ffffffffffffffff8111156124f9576124f8611f69565b5b61250585828601612496565b925050602061251685828601611fed565b9150509250929050565b6000806040838503121561253757612536611f64565b5b600061254585828601611f8f565b925050602061255685828601611f8f565b9150509250929050565b600061010083016000830151612579600086018261214e565b50602083015161258c602086018261214e565b50604083015184820360408601526125a482826121c3565b91505060608301516125b9606086018261215d565b5060808301516125cc608086018261214e565b5060a08301516125df60a086018261214e565b5060c08301516125f260c086018261214e565b5060e083015161260560e086018261215d565b508091505092915050565b6000602082019050818103600083015261262a8184612560565b905092915050565b60008060006060848603121561264b5761264a611f64565b5b600061265986828701611f8f565b935050602084013567ffffffffffffffff81111561267a57612679611f69565b5b61268686828701612496565b925050604084013567ffffffffffffffff8111156126a7576126a6611f69565b5b6126b386828701612496565b9150509250925092565b6126c681611fc4565b82525050565b60006020820190506126e160008301846126bd565b92915050565b600081519050919050565b600082825260208201905092915050565b6000819050602082019050919050565b600061271f838361215d565b60208301905092915050565b6000602082019050919050565b6000612743826126e7565b61274d81856126f2565b935061275883612703565b8060005b838110156127895781516127708882612713565b975061277b8361272b565b92505060018101905061275c565b5085935050505092915050565b600060208201905081810360008301526127b08184612738565b905092915050565b600082825260208201905092915050565b60006127d48261216c565b6127de81856127b8565b93506127ee818560208601612188565b6127f7816121b2565b840191505092915050565b600061010082019050612818600083018b612042565b612825602083018a612042565b818103604083015261283781896127c9565b905061284660608301886126bd565b6128536080830187612042565b61286060a0830186612042565b61286d60c0830185612042565b61287a60e08301846126bd565b9998505050505050505050565b6000806000606084860312156128a05761289f611f64565b5b60006128ae86828701611f8f565b93505060206128bf86828701611fed565b92505060406128d086828701611f8f565b9150509250925092565b6000610120820190506128f0600083018c612042565b6128fd602083018b6126bd565b61290a604083018a612042565b6129176060830189612042565b818103608083015261292981886127c9565b905081810360a083015261293d81876127c9565b905061294c60c08301866120cb565b61295960e0830185612042565b612967610100830184612042565b9a9950505050505050505050565b60006020828403121561298b5761298a611f64565b5b600061299984828501611fed565b91505092915050565b600081519050919050565b600082825260208201905092915050565b6000819050602082019050919050565b6000610100830160008301516129e7600086018261214e565b5060208301516129fa602086018261214e565b5060408301518482036040860152612a1282826121c3565b9150506060830151612a27606086018261215d565b506080830151612a3a608086018261214e565b5060a0830151612a4d60a086018261214e565b5060c0830151612a6060c086018261214e565b5060e0830151612a7360e086018261215d565b508091505092915050565b6000612a8a83836129ce565b905092915050565b6000602082019050919050565b6000612aaa826129a2565b612ab481856129ad565b935083602082028501612ac6856129be565b8060005b85811015612b025784840389528151612ae38582612a7e565b9450612aee83612a92565b925060208a01995050600181019050612aca565b50829750879550505050505092915050565b60006020820190508181036000830152612b2e8184612a9f565b905092915050565b7f4e487b7100000000000000000000000000000000000000000000000000000000600052602260045260246000fd5b60006002820490506001821680612b7d57607f821691505b602082108103612b9057612b8f612b36565b5b50919050565b60008190508160005260206000209050919050565b60006020601f8301049050919050565b600082821b905092915050565b600060088302612bf87fffffffffffffffffffffffffffffffffffffffffffffffffffffffffffffffff82612bbb565b612c028683612bbb565b95508019841693508086168417925050509392505050565b6000819050919050565b6000612c3f612c3a612c3584611f6e565b612c1a565b611f6e565b9050919050565b6000819050919050565b612c5983612c24565b612c6d612c6582612c46565b848454612bc8565b825550505050565b600090565b612c82612c75565b612c8d818484612c50565b505050565b5b81811015612cb157612ca6600082612c7a565b600181019050612c93565b5050565b601f821115612cf657612cc781612b96565b612cd084612bab565b81016020851015612cdf578190505b612cf3612ceb85612bab565b830182612c92565b50505b505050565b600082821c905092915050565b6000612d1960001984600802612cfb565b1980831691505092915050565b6000612d328383612d08565b9150826002028217905092915050565b612d4b8261216c565b67ffffffffffffffff811115612d6457612d63612399565b5b612d6e8254612b65565b612d79828285612cb5565b600060209050601f831160018114612dac5760008415612d9a578287015190505b612da48582612d26565b865550612e0c565b601f198416612dba86612b96565b60005b82811015612de257848901518255600182019150602085019450602081019050612dbd565b86831015612dff5784890151612dfb601f891682612d08565b8355505b6001600288020188555050505b505050505050565b6000606082019050612e296000830186612042565b612e3660208301856126bd565b8181036040830152612e4881846127c9565b9050949350505050565b7f4e6f7420612044414f206d656d62657200000000000000000000000000000000600082015250565b6000612e886010836127b8565b9150612e9382612e52565b602082019050919050565b60006020820190508181036000830152612eb781612e7b565b9050919050565b7f416c726561647920766f74656400000000000000000000000000000000000000600082015250565b6000612ef4600d836127b8565b9150612eff82612ebe565b602082019050919050565b60006020820190508181036000830152612f2381612ee7565b9050919050565b7f4e487b7100000000000000000000000000000000000000000000000000000000600052603260045260246000fd5b7f50726f706f73616c20616c726561647920706173736564000000000000000000600082015250565b6000612f8f6017836127b8565b9150612f9a82612f59565b602082019050919050565b60006020820190508181036000830152612fbe81612f82565b9050919050565b7f566f74696e6720706572696f6420656e64656400000000000000000000000000600082015250565b6000612ffb6013836127b8565b915061300682612fc5565b602082019050919050565b6000602082019050818103600083015261302a81612fee565b9050919050565b7f4e487b7100000000000000000000000000000000000000000000000000000000600052601160045260246000fd5b600061306b82611f6e565b915061307683611f6e565b925082820190508082111561308e5761308d613031565b5b92915050565b60006080820190506130a96000830187612042565b6130b66020830186612042565b6130c360408301856126bd565b6130d06060830184612042565b95945050505050565b60006040820190506130ee6000830185612042565b6130fb6020830184612042565b9392505050565b7f4e487b7100000000000000000000000000000000000000000000000000000000600052601260045260246000fd5b600061313c82611f6e565b915061314783611f6e565b92508261315757613156613102565b5b828204905092915050565b600061316d82611f6e565b915061317883611f6e565b92508282039050818111156131905761318f613031565b5b92915050565b60006131a182611f6e565b91507fffffffffffffffffffffffffffffffffffffffffffffffffffffffffffffffff82036131d3576131d2613031565b5b600182019050919050565b60006080820190506131f36000830187612042565b6132006020830186612042565b61320d60408301856126bd565b818103606083015261321f81846127c9565b905095945050505050565b7f496e73756666696369656e7420766f7465730000000000000000000000000000600082015250565b60006132606012836127b8565b915061326b8261322a565b602082019050919050565b6000602082019050818103600083015261328f81613253565b9050919050565b60006080820190506132ab6000830187612042565b6132b860208301866126bd565b6132c560408301856126bd565b6132d26060830184612042565b9594505050505056fea2646970667358221220cb9bab638754bcbbdfe6520543b01fb78e7a640eea2862da2fd7a4358a3b13ab64736f6c634300081b0033",
  "linkReferences": {},
  "deployedLinkReferences": {}
}